10048782003201400000000007910000000000000000000000000000000000000000
218610001000038600000050000052950000PLANILLA SEMANAL  CAMARA      00
318620001001124300000013000008150000PLANILLA JUAN Z. SEMANA       00
318620001001114600000003000007875000PLANILLA BYRON SEMANAL        00
318620001001118900000017000008575000PLANILLA MORALES SEMANA       00
318620001001117000000006000008950000PLANILLA EDUARDO SEMANA       00
318620001001115400000022000006250000PLANILLA URIEL SEMANA         00
318620001001113800000002000007950000PLANILLA ANA SEMANAL          00
318620001001112000085642000005200000PLANILLA ALLAN SEMANAL        00
40000001059000000000007851IJKABRSBTF00000000000000000000000000000000
